{
  "_format": "hh-sol-artifact-1",
  "contractName": "Core",
  "sourceName": "contracts/core/Core.sol",
  "abi": [
    {
      "anonymous": false,
      "inputs": [
        {
          "indexed": true,
          "internalType": "bytes32",
          "name": "role",
          "type": "bytes32"
        },
        {
          "indexed": true,
          "internalType": "bytes32",
          "name": "previousAdminRole",
          "type": "bytes32"
        },
        {
          "indexed": true,
          "internalType": "bytes32",
          "name": "newAdminRole",
          "type": "bytes32"
        }
      ],
      "name": "RoleAdminChanged",
      "type": "event"
    },
    {
      "anonymous": false,
      "inputs": [
        {
          "indexed": true,
          "internalType": "bytes32",
          "name": "role",
          "type": "bytes32"
        },
        {
          "indexed": true,
          "internalType": "address",
          "name": "account",
          "type": "address"
        },
        {
          "indexed": true,
          "internalType": "address",
          "name": "sender",
          "type": "address"
        }
      ],
      "name": "RoleGranted",
      "type": "event"
    },
    {
      "anonymous": false,
      "inputs": [
        {
          "indexed": true,
          "internalType": "bytes32",
          "name": "role",
          "type": "bytes32"
        },
        {
          "indexed": true,
          "internalType": "address",
          "name": "account",
          "type": "address"
        },
        {
          "indexed": true,
          "internalType": "address",
          "name": "sender",
          "type": "address"
        }
      ],
      "name": "RoleRevoked",
      "type": "event"
    },
    {
      "inputs": [],
      "name": "BURNER_ROLE",
      "outputs": [
        {
          "internalType": "bytes32",
          "name": "",
          "type": "bytes32"
        }
      ],
      "stateMutability": "view",
      "type": "function"
    },
    {
      "inputs": [],
      "name": "DEFAULT_ADMIN_ROLE",
      "outputs": [
        {
          "internalType": "bytes32",
          "name": "",
          "type": "bytes32"
        }
      ],
      "stateMutability": "view",
      "type": "function"
    },
    {
      "inputs": [],
      "name": "GOVERN_ROLE",
      "outputs": [
        {
          "internalType": "bytes32",
          "name": "",
          "type": "bytes32"
        }
      ],
      "stateMutability": "view",
      "type": "function"
    },
    {
      "inputs": [],
      "name": "GUARDIAN_ROLE",
      "outputs": [
        {
          "internalType": "bytes32",
          "name": "",
          "type": "bytes32"
        }
      ],
      "stateMutability": "view",
      "type": "function"
    },
    {
      "inputs": [],
      "name": "MINTER_ROLE",
      "outputs": [
        {
          "internalType": "bytes32",
          "name": "",
          "type": "bytes32"
        }
      ],
      "stateMutability": "view",
      "type": "function"
    },
    {
      "inputs": [],
      "name": "PCV_CONTROLLER_ROLE",
      "outputs": [
        {
          "internalType": "bytes32",
          "name": "",
          "type": "bytes32"
        }
      ],
      "stateMutability": "view",
      "type": "function"
    },
    {
      "inputs": [
        {
          "internalType": "bytes32",
          "name": "role",
          "type": "bytes32"
        },
        {
          "internalType": "bytes32",
          "name": "adminRole",
          "type": "bytes32"
        }
      ],
      "name": "createRole",
      "outputs": [],
      "stateMutability": "nonpayable",
      "type": "function"
    },
    {
      "inputs": [
        {
          "internalType": "bytes32",
          "name": "role",
          "type": "bytes32"
        }
      ],
      "name": "getRoleAdmin",
      "outputs": [
        {
          "internalType": "bytes32",
          "name": "",
          "type": "bytes32"
        }
      ],
      "stateMutability": "view",
      "type": "function"
    },
    {
      "inputs": [
        {
          "internalType": "bytes32",
          "name": "role",
          "type": "bytes32"
        },
        {
          "internalType": "uint256",
          "name": "index",
          "type": "uint256"
        }
      ],
      "name": "getRoleMember",
      "outputs": [
        {
          "internalType": "address",
          "name": "",
          "type": "address"
        }
      ],
      "stateMutability": "view",
      "type": "function"
    },
    {
      "inputs": [
        {
          "internalType": "bytes32",
          "name": "role",
          "type": "bytes32"
        }
      ],
      "name": "getRoleMemberCount",
      "outputs": [
        {
          "internalType": "uint256",
          "name": "",
          "type": "uint256"
        }
      ],
      "stateMutability": "view",
      "type": "function"
    },
    {
      "inputs": [
        {
          "internalType": "address",
          "name": "burner",
          "type": "address"
        }
      ],
      "name": "grantBurner",
      "outputs": [],
      "stateMutability": "nonpayable",
      "type": "function"
    },
    {
      "inputs": [
        {
          "internalType": "address",
          "name": "governor",
          "type": "address"
        }
      ],
      "name": "grantGovernor",
      "outputs": [],
      "stateMutability": "nonpayable",
      "type": "function"
    },
    {
      "inputs": [
        {
          "internalType": "address",
          "name": "guardian",
          "type": "address"
        }
      ],
      "name": "grantGuardian",
      "outputs": [],
      "stateMutability": "nonpayable",
      "type": "function"
    },
    {
      "inputs": [
        {
          "internalType": "address",
          "name": "minter",
          "type": "address"
        }
      ],
      "name": "grantMinter",
      "outputs": [],
      "stateMutability": "nonpayable",
      "type": "function"
    },
    {
      "inputs": [
        {
          "internalType": "address",
          "name": "pcvController",
          "type": "address"
        }
      ],
      "name": "grantPCVController",
      "outputs": [],
      "stateMutability": "nonpayable",
      "type": "function"
    },
    {
      "inputs": [
        {
          "internalType": "bytes32",
          "name": "role",
          "type": "bytes32"
        },
        {
          "internalType": "address",
          "name": "account",
          "type": "address"
        }
      ],
      "name": "grantRole",
      "outputs": [],
      "stateMutability": "nonpayable",
      "type": "function"
    },
    {
      "inputs": [
        {
          "internalType": "bytes32",
          "name": "role",
          "type": "bytes32"
        },
        {
          "internalType": "address",
          "name": "account",
          "type": "address"
        }
      ],
      "name": "hasRole",
      "outputs": [
        {
          "internalType": "bool",
          "name": "",
          "type": "bool"
        }
      ],
      "stateMutability": "view",
      "type": "function"
    },
    {
      "inputs": [],
      "name": "init",
      "outputs": [],
      "stateMutability": "nonpayable",
      "type": "function"
    },
    {
      "inputs": [
        {
          "internalType": "address",
          "name": "_address",
          "type": "address"
        }
      ],
      "name": "isBurner",
      "outputs": [
        {
          "internalType": "bool",
          "name": "",
          "type": "bool"
        }
      ],
      "stateMutability": "view",
      "type": "function"
    },
    {
      "inputs": [
        {
          "internalType": "address",
          "name": "_address",
          "type": "address"
        }
      ],
      "name": "isGovernor",
      "outputs": [
        {
          "internalType": "bool",
          "name": "",
          "type": "bool"
        }
      ],
      "stateMutability": "view",
      "type": "function"
    },
    {
      "inputs": [
        {
          "internalType": "address",
          "name": "_address",
          "type": "address"
        }
      ],
      "name": "isGuardian",
      "outputs": [
        {
          "internalType": "bool",
          "name": "",
          "type": "bool"
        }
      ],
      "stateMutability": "view",
      "type": "function"
    },
    {
      "inputs": [
        {
          "internalType": "address",
          "name": "_address",
          "type": "address"
        }
      ],
      "name": "isMinter",
      "outputs": [
        {
          "internalType": "bool",
          "name": "",
          "type": "bool"
        }
      ],
      "stateMutability": "view",
      "type": "function"
    },
    {
      "inputs": [
        {
          "internalType": "address",
          "name": "_address",
          "type": "address"
        }
      ],
      "name": "isPCVController",
      "outputs": [
        {
          "internalType": "bool",
          "name": "",
          "type": "bool"
        }
      ],
      "stateMutability": "view",
      "type": "function"
    },
    {
      "inputs": [
        {
          "internalType": "bytes32",
          "name": "role",
          "type": "bytes32"
        },
        {
          "internalType": "address",
          "name": "account",
          "type": "address"
        }
      ],
      "name": "renounceRole",
      "outputs": [],
      "stateMutability": "nonpayable",
      "type": "function"
    },
    {
      "inputs": [
        {
          "internalType": "address",
          "name": "burner",
          "type": "address"
        }
      ],
      "name": "revokeBurner",
      "outputs": [],
      "stateMutability": "nonpayable",
      "type": "function"
    },
    {
      "inputs": [
        {
          "internalType": "address",
          "name": "governor",
          "type": "address"
        }
      ],
      "name": "revokeGovernor",
      "outputs": [],
      "stateMutability": "nonpayable",
      "type": "function"
    },
    {
      "inputs": [
        {
          "internalType": "address",
          "name": "guardian",
          "type": "address"
        }
      ],
      "name": "revokeGuardian",
      "outputs": [],
      "stateMutability": "nonpayable",
      "type": "function"
    },
    {
      "inputs": [
        {
          "internalType": "address",
          "name": "minter",
          "type": "address"
        }
      ],
      "name": "revokeMinter",
      "outputs": [],
      "stateMutability": "nonpayable",
      "type": "function"
    },
    {
      "inputs": [
        {
          "internalType": "bytes32",
          "name": "role",
          "type": "bytes32"
        },
        {
          "internalType": "address",
          "name": "account",
          "type": "address"
        }
      ],
      "name": "revokeOverride",
      "outputs": [],
      "stateMutability": "nonpayable",
      "type": "function"
    },
    {
      "inputs": [
        {
          "internalType": "address",
          "name": "pcvController",
          "type": "address"
        }
      ],
      "name": "revokePCVController",
      "outputs": [],
      "stateMutability": "nonpayable",
      "type": "function"
    },
    {
      "inputs": [
        {
          "internalType": "bytes32",
          "name": "role",
          "type": "bytes32"
        },
        {
          "internalType": "address",
          "name": "account",
          "type": "address"
        }
      ],
      "name": "revokeRole",
      "outputs": [],
      "stateMutability": "nonpayable",
      "type": "function"
    }
  ],
  "bytecode": "0x60806040523480156200001157600080fd5b506200001d306200012a565b620000587f9f2df0fed2c77648de5860a4cc508cd0818c85b8b8a1ab4ceeef8d981c8956a6600080516020620016e183398151915262000148565b620000937f3c11d16cbaffd01df69ce1c404f6340ee057498f5f00246190ea54220576a848600080516020620016e183398151915262000148565b620000ce7f0866eae1216ed05a11636a648003f3f62921eb97ccb05acc30636f62958a8bd6600080516020620016e183398151915262000148565b620000e9600080516020620016e18339815191528062000148565b620001247f55435dd261a4b9b3364963f7738a7a662ad9c84396d64be3365284bb7f0a5041600080516020620016e183398151915262000148565b620002ae565b62000145600080516020620016e1833981519152826200019a565b50565b600082815260208190526040808220600201549051839285917fbd79b86ffe0ab8e8776151514217cd7cacd52c909f66475c3af44e129f0b00ff9190a460009182526020829052604090912060020155565b620001a68282620001aa565b5050565b600082815260208181526040909120620001cf91839062000f7362000223821b17901c565b15620001a657620001df62000243565b6001600160a01b0316816001600160a01b0316837f2f8788117e7eff1d82e926ec794901d17c78024a50270940304540a733656f0d60405160405180910390a45050565b60006200023a836001600160a01b03841662000247565b90505b92915050565b3390565b600062000255838362000296565b6200028d575081546001818101845560008481526020808220909301849055845484825282860190935260409020919091556200023d565b5060006200023d565b60009081526001919091016020526040902054151590565b61142380620002be6000396000f3fe608060405234801561001057600080fd5b50600436106101e55760003560e01c80638dd922761161010f578063ca15c873116100a2578063e0a2004611610071578063e0a20046146105a0578063e1c7392a146105a8578063e43581b8146105b0578063e6eb982f146105d6576101e5565b8063ca15c87314610529578063cfbd488514610546578063d53913931461056c578063d547741f14610574576101e5565b8063a217fddf116100de578063a217fddf146104af578063aa271e1a146104b7578063af648c3d146104dd578063c1ef303a14610503576101e5565b80638dd92276146103f85780639010d07c1461041e57806391d148541461045d57806394b1d2c014610489576101e5565b8063282c51f311610187578063395c62e811610156578063395c62e8146103635780634334614a146103895780634c9f9384146103af5780636186943e146103d2576101e5565b8063282c51f3146102fb5780632f2ff15d1461030357806336568abe1461032f57806338b7f4461461035b576101e5565b806310511f96116101c357806310511f9614610278578063248a9ca31461029e57806324ea54f4146102cd578063261707fa146102d5576101e5565b8063080bf57c146101ea5780630900cc33146102185780630c68ba211461023e575b600080fd5b6102166004803603604081101561020057600080fd5b50803590602001356001600160a01b03166105fc565b005b6102166004803603602081101561022e57600080fd5b50356001600160a01b0316610709565b6102646004803603602081101561025457600080fd5b50356001600160a01b031661077a565b604080519115158252519081900360200190f35b6102166004803603602081101561028e57600080fd5b50356001600160a01b03166107ac565b6102bb600480360360208110156102b457600080fd5b503561081a565b60408051918252519081900360200190f35b6102bb61082f565b610216600480360360208110156102eb57600080fd5b50356001600160a01b0316610853565b6102bb6108c1565b6102166004803603604081101561031957600080fd5b50803590602001356001600160a01b03166108e5565b6102166004803603604081101561034557600080fd5b50803590602001356001600160a01b0316610951565b6102bb6109b2565b6102166004803603602081101561037957600080fd5b50356001600160a01b03166109d6565b6102646004803603602081101561039f57600080fd5b50356001600160a01b0316610a44565b610216600480360360408110156103c557600080fd5b5080359060200135610a70565b610264600480360360208110156103e857600080fd5b50356001600160a01b0316610abe565b6102166004803603602081101561040e57600080fd5b50356001600160a01b0316610aea565b6104416004803603604081101561043457600080fd5b5080359060200135610b58565b604080516001600160a01b039092168252519081900360200190f35b6102646004803603604081101561047357600080fd5b50803590602001356001600160a01b0316610b77565b6102166004803603602081101561049f57600080fd5b50356001600160a01b0316610b8f565b6102bb610bfd565b610264600480360360208110156104cd57600080fd5b50356001600160a01b0316610c02565b610216600480360360208110156104f357600080fd5b50356001600160a01b0316610c2e565b6102166004803603602081101561051957600080fd5b50356001600160a01b0316610c9c565b6102bb6004803603602081101561053f57600080fd5b5035610d0a565b6102166004803603602081101561055c57600080fd5b50356001600160a01b0316610d21565b6102bb610d8f565b6102166004803603604081101561058a57600080fd5b50803590602001356001600160a01b0316610db3565b6102bb610e0c565b610216610e30565b610264600480360360208110156105c657600080fd5b50356001600160a01b0316610ed9565b610216600480360360208110156105ec57600080fd5b50356001600160a01b0316610f05565b6106053361077a565b6106405760405162461bcd60e51b81526004018080602001828103825260258152602001806113976025913960400191505060405180910390fd5b7f899bd46557473cb80307a9dabc297131ced39608330a2d29b2d52b660c03923e82141561069f5760405162461bcd60e51b815260040180806020018281038252602c8152602001806113bc602c913960400191505060405180910390fd5b6040805163d547741f60e01b8152600481018490526001600160a01b03831660248201529051309163d547741f91604480830192600092919082900301818387803b1580156106ed57600080fd5b505af1158015610701573d6000803e3d6000fd5b505050505050565b61071233610ed9565b61074d5760405162461bcd60e51b81526004018080602001828103825260258152602001806112e56025913960400191505060405180910390fd5b6107777f3c11d16cbaffd01df69ce1c404f6340ee057498f5f00246190ea54220576a84882610db3565b50565b60006107a67f55435dd261a4b9b3364963f7738a7a662ad9c84396d64be3365284bb7f0a504183610b77565b92915050565b6107b533610ed9565b6107f05760405162461bcd60e51b81526004018080602001828103825260258152602001806112e56025913960400191505060405180910390fd5b6107777f3c11d16cbaffd01df69ce1c404f6340ee057498f5f00246190ea54220576a848826108e5565b60009081526020819052604090206002015490565b7f55435dd261a4b9b3364963f7738a7a662ad9c84396d64be3365284bb7f0a504181565b61085c33610ed9565b6108975760405162461bcd60e51b81526004018080602001828103825260258152602001806112e56025913960400191505060405180910390fd5b6107777f9f2df0fed2c77648de5860a4cc508cd0818c85b8b8a1ab4ceeef8d981c8956a6826108e5565b7f3c11d16cbaffd01df69ce1c404f6340ee057498f5f00246190ea54220576a84881565b60008281526020819052604090206002015461090890610903610f88565b610b77565b6109435760405162461bcd60e51b815260040180806020018281038252602f81526020018061130a602f913960400191505060405180910390fd5b61094d8282610f8c565b5050565b610959610f88565b6001600160a01b0316816001600160a01b0316146109a85760405162461bcd60e51b815260040180806020018281038252602f8152602001806113e8602f913960400191505060405180910390fd5b61094d8282610ff5565b7f899bd46557473cb80307a9dabc297131ced39608330a2d29b2d52b660c03923e81565b6109df33610ed9565b610a1a5760405162461bcd60e51b81526004018080602001828103825260258152602001806112e56025913960400191505060405180910390fd5b6107777f899bd46557473cb80307a9dabc297131ced39608330a2d29b2d52b660c03923e826108e5565b60006107a67f3c11d16cbaffd01df69ce1c404f6340ee057498f5f00246190ea54220576a84883610b77565b610a7933610ed9565b610ab45760405162461bcd60e51b81526004018080602001828103825260258152602001806112e56025913960400191505060405180910390fd5b61094d828261105e565b60006107a67f0866eae1216ed05a11636a648003f3f62921eb97ccb05acc30636f62958a8bd683610b77565b610af333610ed9565b610b2e5760405162461bcd60e51b81526004018080602001828103825260258152602001806112e56025913960400191505060405180910390fd5b6107777f0866eae1216ed05a11636a648003f3f62921eb97ccb05acc30636f62958a8bd682610db3565b6000828152602081905260408120610b7090836110b0565b9392505050565b6000828152602081905260408120610b7090836110bc565b610b9833610ed9565b610bd35760405162461bcd60e51b81526004018080602001828103825260258152602001806112e56025913960400191505060405180910390fd5b6107777f55435dd261a4b9b3364963f7738a7a662ad9c84396d64be3365284bb7f0a5041826108e5565b600081565b60006107a67f9f2df0fed2c77648de5860a4cc508cd0818c85b8b8a1ab4ceeef8d981c8956a683610b77565b610c3733610ed9565b610c725760405162461bcd60e51b81526004018080602001828103825260258152602001806112e56025913960400191505060405180910390fd5b6107777f55435dd261a4b9b3364963f7738a7a662ad9c84396d64be3365284bb7f0a504182610db3565b610ca533610ed9565b610ce05760405162461bcd60e51b81526004018080602001828103825260258152602001806112e56025913960400191505060405180910390fd5b6107777f0866eae1216ed05a11636a648003f3f62921eb97ccb05acc30636f62958a8bd6826108e5565b60008181526020819052604081206107a6906110d1565b610d2a33610ed9565b610d655760405162461bcd60e51b81526004018080602001828103825260258152602001806112e56025913960400191505060405180910390fd5b6107777f9f2df0fed2c77648de5860a4cc508cd0818c85b8b8a1ab4ceeef8d981c8956a682610db3565b7f9f2df0fed2c77648de5860a4cc508cd0818c85b8b8a1ab4ceeef8d981c8956a681565b600082815260208190526040902060020154610dd190610903610f88565b6109a85760405162461bcd60e51b81526004018080602001828103825260308152602001806113396030913960400191505060405180910390fd5b7f0866eae1216ed05a11636a648003f3f62921eb97ccb05acc30636f62958a8bd681565b600154610100900460ff1680610e495750610e496110dc565b80610e57575060015460ff16155b610e925760405162461bcd60e51b815260040180806020018281038252602e815260200180611369602e913960400191505060405180910390fd5b600154610100900460ff16158015610ebc576001805460ff1961ff00199091166101001716811790555b610ec5336110ed565b8015610777576001805461ff001916905550565b60006107a67f899bd46557473cb80307a9dabc297131ced39608330a2d29b2d52b660c03923e83610b77565b610f0e33610ed9565b610f495760405162461bcd60e51b81526004018080602001828103825260258152602001806112e56025913960400191505060405180910390fd5b6107777f899bd46557473cb80307a9dabc297131ced39608330a2d29b2d52b660c03923e82610db3565b6000610b70836001600160a01b038416611117565b3390565b6000828152602081905260409020610fa49082610f73565b1561094d57610fb1610f88565b6001600160a01b0316816001600160a01b0316837f2f8788117e7eff1d82e926ec794901d17c78024a50270940304540a733656f0d60405160405180910390a45050565b600082815260208190526040902061100d9082611161565b1561094d5761101a610f88565b6001600160a01b0316816001600160a01b0316837ff6391f5c32d9c69d2a47ea670b442974b53935d1edc7fd64eb21e047a839171b60405160405180910390a45050565b600082815260208190526040808220600201549051839285917fbd79b86ffe0ab8e8776151514217cd7cacd52c909f66475c3af44e129f0b00ff9190a460009182526020829052604090912060020155565b6000610b708383611176565b6000610b70836001600160a01b0384166111da565b60006107a6826111f2565b60006110e7306111f6565b15905090565b6107777f899bd46557473cb80307a9dabc297131ced39608330a2d29b2d52b660c03923e82610943565b600061112383836111da565b611159575081546001818101845560008481526020808220909301849055845484825282860190935260409020919091556107a6565b5060006107a6565b6000610b70836001600160a01b0384166111fc565b815460009082106111b85760405162461bcd60e51b81526004018080602001828103825260228152602001806112c36022913960400191505060405180910390fd5b8260000182815481106111c757fe5b9060005260206000200154905092915050565b60009081526001919091016020526040902054151590565b5490565b3b151590565b600081815260018301602052604081205480156112b8578354600019808301919081019060009087908390811061122f57fe5b906000526020600020015490508087600001848154811061124c57fe5b60009182526020808320909101929092558281526001898101909252604090209084019055865487908061127c57fe5b600190038181906000526020600020016000905590558660010160008781526020019081526020016000206000905560019450505050506107a6565b60009150506107a656fe456e756d657261626c655365743a20696e646578206f7574206f6620626f756e64735065726d697373696f6e733a2043616c6c6572206973206e6f74206120676f7665726e6f72416363657373436f6e74726f6c3a2073656e646572206d75737420626520616e2061646d696e20746f206772616e74416363657373436f6e74726f6c3a2073656e646572206d75737420626520616e2061646d696e20746f207265766f6b65496e697469616c697a61626c653a20636f6e747261637420697320616c726561647920696e697469616c697a65645065726d697373696f6e733a2043616c6c6572206973206e6f74206120677561726469616e5065726d697373696f6e733a20477561726469616e2063616e6e6f74207265766f6b6520676f7665726e6f72416363657373436f6e74726f6c3a2063616e206f6e6c792072656e6f756e636520726f6c657320666f722073656c66a164736f6c6343000706000a899bd46557473cb80307a9dabc297131ced39608330a2d29b2d52b660c03923e",
  "linkReferences": {},
  "deployedLinkReferences": {}
}